:020000040800F2
:10000000680E002001010008090100080B0100082A
:100010000D0100080F010008110100080000000098
:1000200000000000000000000000000013010008B4
:100030001501000800000000170100081127000842
:100040001B0100081B0100081B0100081B01000820
:100050001B0100081B0100081B0100081B01000810
:100060001B0100081B0100081B0100081B01000800
:100070001B0100081B0100081B0100081B010008F0
:100080001B0100081B0100081B0100081B010008E0
:10009000654400081B0100081B0100081B01000843
:1000A0001B0100081B0100081B0100081B010008C0
:1000B0001B0100081B0100081B0100081B010008B0
:1000C0001B0100081B0100081B0100081B010008A0
:1000D0001B010008952A00081B0100081B010008ED
:1000E0001B0100081B0100081B010008DFF80CD0F1
:1000F00000F02AF8004800476D450008680E00200F
:100100000648804706480047FEE7FEE7FEE7FEE7B1
:10011000FEE7FEE7FEE7FEE7FEE7FEE795270008BD
:10012000ED00000840EA01039B0703D009E008C97D
:10013000121F08C0042AFAD203E011F8013B00F8AC
:10014000013B521EF9D27047064C074D06E0E068AD
:1001500040F0010394E8070098471034AC42F6D30E
:10016000FFF7C8FFC8450008E845000870B58C18BF
:1001700010F8015B15F0070301D110F8013B2A11BB
:1001800006D110F8012B03E010F8016B01F8016BA8
:100190005B1EF9D12B0705D40023521E0DD401F8A4
:1001A000013BFAE710F8013BCB1A921C03E013F86D
:1001B000015B01F8015B521EF9D5A142D8D30020A2
:1001C00070BD0346042B15D007DC7BB1012B0ED08C
:1001D000022B0DD0032B12D10BE0202B0BD0212BA7
:1001E0000AD0222B09D0232B09D107E008E007E031
:1001F00006E005E004E003E002E001E000E000BF0B
:1002000000BF0020704700207047000010B508486C
:1002100008490860002208490648006802F040FDCD
:1002200006490448006802F034FD002010BD0000BB
:10023000B40100200C000020080000200400002071
:1002400070B504460D460348006802F0FEFC00202D
:1002500070BD00000C00002031B5002400F09CF9B6
:10026000044600BF00F098F9001B00998842F9D3BA
:1002700038BD00002DE9F847034600240020002582
:100280008446002700226EE14FF0010808FA02F4CC
:10029000D1F8008008EA0400A0427DD1DFF8D0A2A6
:1002A000D1F80480A8EB0A09D0453AD014DCB8F1A3
:1002B000030F50D009DCB8F1000F31D0B8F1010FB5
:1002C0001CD0B8F1020F49D120E0B8F1110F18D0BD
:1002D000B8F1120F42D11EE0B9F5881F25D006DC17
:1002E000B9F5803F20D0B9F5801F37D11AE0B9F5B4
:1002F000001F18D0B9F5041F30D117E0D1F80CC099
:100300002DE0D1F80C8008F1040C28E0D1F80C8025
:1003100008F1080C23E0D1F80C8008F10C0C1EE069
:1003200000BF00BF00BF00BF00BF00BFD1F8088002
:10033000B8F1000F02D14FF0040C0BE0D1F80880A7
:10034000B8F1010F03D14FF0080C1C6102E04FF02F
:10035000080C5C6103E04FF0000C00E000BF00BF40
:10036000FF2801D8984601E003F104084646FF281B
:1003700002D84FEA820803E0A2F108084FEA880891
:100380004746D6F800804FF00F0909FA07F928EA26
:1003900009080CFA07F900E088E048EA0908C6F8FD
:1003A0000080D1F8048008F08058B8F1805F7DD1DA
:1003B00000BFDFF8C081D8F8188048F00108DFF8E6
:1003C000B491C9F81880C846D8F8188008F0010818
:1003D000CDF8008000BF00BF4FEAB9384FEA92095C
:1003E00058F829504FEA82784FEA18794FF00F08F1
:1003F00008FA09F825EA0805DFF87C81434502D1AF
:100400004FF0000816E0DFF87481434502D14FF049
:1004100001080FE0DFF86881434502D14FF0020880
:1004200008E0DFF86081434502D14FF0030801E0A6
:100430004FF004084FEA82794FEA197908FA09F86F
:1004400048EA0505DFF840814FEA920948F829504B
:10045000D1F8048008F48038B8F5803F0AD1DFF87D
:100460002C81D8F8008048EA0008DFF82091C9F80C
:10047000008009E0DFF81481D8F8008028EA00083D
:10048000DFF80891C9F80080D1F8048008F400383A
:10049000B8F5003F10D1DFF8F48008F10408D8F86F
:1004A000008048EA0008DFF8E49000E05AE009F133
:1004B0000409C9F800800DE0DFF8D08008F10408D5
:1004C000D8F8008028EA0008DFF8C09009F1040994
:1004D000C9F80080D1F8048008F48018B8F5801FAE
:1004E0000ED1DFF8A88008F10808D8F8008048EAA3
:1004F0000008DFF8989009F10809C9F800800DE0BC
:10050000DFF8888008F10808D8F8008028EA000899
:10051000DFF8789009F10809C9F80080D1F8048063
:1005200008F40018B8F5001F0ED1DFF8608008F15C
:100530000C08D8F8008048EA0008DFF8509009F16C
:100540000C09C9F800800DE0DFF8408008F10C08C4
:10055000D8F8008028EA0008DFF8309009F10C098B
:10056000C9F80080521C102AFFF48EAEBDE8F8874F
:10057000000011100010024000080140000C014072
:100580000010014000140140080001400004014037
:10059000C2684A40C2607047014800687047000066
:1005A0000000002002480068401C014908607047B4
:1005B0000000002010B50848006840F0100006490F
:1005C0000860032000F0CEF8002000F007F800F0EB
:1005D00059F8002010BD00000020024070B504460C
:1005E00000F00AFF4FF47A71B0FBF1F5284601F0F4
:1005F0007EFC00222146501E00F075F8002070BDE0
:1006000070B504460D460CB9012070BD94F8390050
:1006100028B9002084F83800204601F0F5FC0220BB
:1006200084F839002068C06820F400502168C86050
:10063000204602F051F92068006920F4006021682A
:1006400008612068406920F02A002168486120681C
:10065000006940F48040216808612068006920F04A
:1006600020002843216808612068C06840F40050D9
:100670002168C8600020E063012084F83900002070
:10068000C3E7000008B500BF0E48806940F00100D4
:100690000C4988610846806900F00100009000BFA5
:1006A00000BF032000F05EF800221146501E00F04B
:1006B0001AF80548406820F0E06040F000700249F8
:1006C000486008BD001002400000014000BF00F07B
:1006D0001F02012191404209920002F1E022C2F87A
:1006E000001100BF70472DE9F05F80460D461646A9
:1006F000002701F0CFFD074639462A46334601F070
:100700000700C0F1070ABAF1040F02D94FF0040A3A
:1007100001E0C0F1070AD14600F1040ABAF1070F5F
:1007200002D24FF0000A01E0A0F1030AD4464FF0D4
:10073000010A0AFA09FAAAF1010A0AEA020A0AFAFD
:100740000CFA4FF0010B0BFA0CFBABF1010B0BEAAF
:10075000030B4AEA0B042146404601F0A3FDBDE825
:10076000F09F000000BF00F00702064B19684FF62B
:10077000FF031940044B0B4343EA0221014B19606C
:1007800000BF70470CED00E00000FA0570B50546AB
:100790000C46002104F08000802806D104F07F067A
:1007A00005F1280000EB461103E005F5027000EBAF
:1007B00044111AB9002088728B8004E001208872ED
:1007C000CB80180C0881002070BD704770B50446BE
:1007D0000D4604F1280101EB45114A692946D4F878
:1007E0001C0402F025FD70BD70B504460D4604F5ED
:1007F000027101EB45114A692946D4F81C0402F044
:1008000084FD70BD70B504460D46002605F08000DD
:10081000802806D105F07F0104F1280000EB411685
:1008200005E005F07F0104F5027000EB411605F0CC
:100830007F00307005F08000C009707000BF94F830
:10084000E803012801D1022070BD012084F8E803EB
:1008500000BF3146206803F09AFA00BF002084F8F8
:10086000E80300BF00BFEFE770B504460D46002661
:1008700005F08000802806D105F07F0104F12800F2
:1008800000EB411603E004F5027000EB4516002072
:10089000B07005F07F003070C5F3C010707000BFFD
:1008A00094F8E803012801D1022070BD012084F8EA
:1008B000E80300BF3146206803F092FB00BF002030
:1008C00084F8E80300BF00BFEFE7024601F07F03B2
:1008D00002F5027000EB4310808B80B270472DE967
:1008E000F04704460D46174698464FF0000900268B
:1008F00005F08000802806D105F07F0104F1280072
:1009000000EB411605E005F07F0104F5027000EBF5
:10091000411605F07F00307005F08000C00970704E
:10092000376186F8038000BF94F8E803012802D1FC
:100930000220BDE8F087012084F8E80300BF3146BB
:10094000206803F04BF800BF002084F8E80300BFE4
:100950004846EEE72DE9F04104460E461746984614
:10096000002506F07F0104F5027000EB41156F6170
:10097000C5F818800020E861687006F07F002870D4
:1009800000BF94F8E803012802D10220BDE8F081FD
:10099000012084F8E80300BF06F07F0020B9294653
:1009A000206803F0BAFB03E02946206803F0B5FB9A
:1009B00000BF002084F8E80300BF00BFE6E770B581
:1009C00004460D46002605F08000802806D105F07B
:1009D0007F0104F1280000EB411603E004F50270EA
:1009E00000EB45160120B07005F07F003070C5F3B4
:1009F000C010707000BF94F8E803012801D10220F4
:100A000070BD012084F8E80300BF3146206803F080
:100A100041FB05F07F0020B904F57B71206803F0ED
:100A2000DCFA00BF002084F8E80300BF00BFE7E75E
:100A30002DE9F04104460E4617469846002506F07B
:100A40007F0104F1280000EB41156F61C5F81880A3
:100A50000020E8610120687006F07F00287000BF68
:100A600094F8E803012802D10220BDE8F0810120BA
:100A700084F8E80300BF06F07F0020B9294620680B
:100A800003F04BFB03E02946206803F046FB00BF60
:100A9000002084F8E80300BF00BFE6E770B5044615
:100AA0000025206803F0E6FC00F40040B0F5004F9C
:100AB00002D1204601F00AFC206803F0DBFC00F4C0
:100AC0008060B0F5806F0ED12068B0F8440020F44B
:100AD00080602168A1F84400204600F041F900211F
:100AE000204600F060F9206803F0C4FC00F4804068
:100AF000B0F5804F07D12068B0F8440020F4804062
:100B00002168A1F84400206803F0B4FC00F4005010
:100B1000B0F5005F07D12068B0F8440020F4005021
:100B20002168A1F84400206803F0A4FC00F4805080
:100B3000B0F5805F17D12068B0F8400020F00400C5
:100B40002168A1F840004FF43D452068A0F84050CE
:100B5000204600F01AF92068B0F8440020F48050D4
:100B60002168A1F84400206803F084FC00F40060D0
:100B7000B0F5006F20D12068B0F8440020F4006088
:100B80002168A1F844002068B0F8400040F0080057
:100B90002168A1F840002068B0F8400040F004004F
:100BA0002168A1F84000206803F064FCC0F3003025
:100BB00010B9204600F03AF9206803F05BFC00F41D
:100BC0000070B0F5007F0AD12068B0F8440020F42E
:100BD00000702168A1F84400204600F0DDF820688C
:100BE00003F048FC00F48070B0F5807F07D12068E6
:100BF000B0F8440020F480702168A1F8440070BD72
:100C000030B585B00446002514B9012005B030BDCB
:100C100094F8E90328B9002084F8E803204600F09E
:100C20007DF8032084F8E903206803F0CBF914224F
:100C300004F110016846FFF775FA94E80F0003F01D
:100C4000A2F80021206803F02EFC002525E00121F8
:100C500004F1280000EB4510417004F1280000EB7E
:100C60004510057004F1280000EB45108581002136
:100C700004F1280000EB4510C17004F1280000EBDE
:100C80004510016104F1280000EB4510416104F1B9
:100C9000280000EB451081616D1C0F2DD7D3002576
:100CA00024E0002104F5027000EB4510417004F5CA
:100CB000027000EB4510057004F1280000EB4510B0
:100CC000858104F5027000EB4510C17004F50270D7
:100CD00000EB4510016104F5027000EB4510416125
:100CE00004F5027000EB451081616D1C0F2DD8D307
:100CF000142204F110016846FFF714FA94E80F007B
:100D000003F055F9002084F82400012084F8E90359
:100D1000206803F049F9002078E7000038B5044660
:100D20000D492068884215D100BF0C48C06940F4C5
:100D300000000A49C8610846C06900F4000000903C
:100D400000BF00BF002211461420FFF7CCFC142086
:100D5000FFF7BCFC38BD0000005C00400010024002
:100D600070B504460125A068022801D100BF01E04A
:100D7000012500BF00BF2946D4F81C0402F0C4FBC3
:100D8000D4F81C0402F086FB70BD10B50446D4F8FC
:100D90001C0402F0A1FB10BD10B50446D4F81C04DD
:100DA00002F0A1FB10BD70B504460D4600BF94F8DB
:100DB000E803012801D1022070BD012084F8E80376
:100DC00000BF84F824502946206803F06FFB00BF61
:100DD000002084F8E80300BF00BFEDE710B504462B
:100DE00004F57B71D4F81C0402F09CFB10BD10B517
:100DF000044600BF94F8E803012801D1022010BD89
:100E0000012084F8E80300BF01212046FFF7DDFC44
:100E1000206803F0C6F8206803F018FB00BF00202C
:100E200084F8E80300BF00BFE9E7000010B50446FE
:100E3000D4F81C0402F0BFFBA06928B10348006885
:100E400040F006000149086010BD000010ED00E010
:100E5000F8B5044600250026207800F0010000289F
:100E600074D000BF5448C06940F080505249C861F6
:100E70000846C06900F08050009000BF00BF4F4896
:100E8000006840F480704D490860FFF785FB054617
:100E900006E0FFF781FB401B642801D90320F8BD61
:100EA0004648006800F480700028F2D04248006A8A
:100EB00000F44070A18801F44071884260D03E483F
:100EC000006A20F440760121080490FAA0F0B0FAFC
:100ED00080F03B4A02EB8000C0F8001400200904B7
:100EE00091FAA1F1B1FA81F102EB8101C1F800049C
:100EF0003148066206F0020048B3FFF74DFB054695
:100F000008E0FFF749FB401B41F28831884201D9D4
:100F10000320C4E74020022191FAA1F1B1FA81F146
:100F200008430121B1EB601F02D12348006811E0A2
:100F30004020022191FAA1F1B1FA81F10843022186
:100F4000B1EB601F04D11C48006A03E018E00FE019
:100F50001948406A4021022292FAA2F2B2FA82F2C1
:100F6000114301F01F020121914008400028C8D020
:100F70001148006A20F44070616808430E49086215
:100F8000207800F00200022807D10B48406820F4C6
:100F90004040A168084308494860207800F01000EC
:100FA000102807D10448406820F48000E168084315
:100FB00001494860002072E70010024000700040C4
:100FC0000000424270B504460D460026F74800680E
:100FD00000F00700A84270D2F448006820F0070033
:100FE0002843F24908600846006800F00700A8425C
:100FF00001D0012070BD207800F00200022807D146
:10100000EB48406820F0F000A1680843E8494860D8
:10101000207800F0010000286FD0606801282DD1F1
:101020002020010391FAA1F1B1FA81F108430121D5
:10103000B1EB601F02D1DE4800680FE02020010301
:1010400091FAA1F1B1FA81F108430221B1EB601FDD
:1010500002D1D748006A01E0D548406A20210A033E
:1010600092FAA2F2B2FA82F2114301F01F020121B8
:1010700091400840002861D10120BBE76068022848
:101080002DD12020010591FAA1F1B1FA81F1084397
:101090000121B1EB601F02D1C548006810E020209B
:1010A000010591FAA1F1B1FA81F108430221B1EBF6
:1010B000601F03D1BE48006A02E083E0BC48406A7A
:1010C00020210A0592FAA2F2B2FA82F2114301F04B
:1010D0001F0201219140084078BB01208AE72020AF
:1010E000022191FAA1F1B1FA81F108430121B1EB9A
:1010F000601F03D1AE48006810E05BE120200221B0
:1011000091FAA1F1B1FA81F108430221B1EB601F1C
:1011100002D1A748006A01E0A548406A20210222C6
:1011200092FAA2F2B2FA82F2114301F01F020121F7
:101130009140084008B901205CE7FFE79C484068FF
:1011400020F003006168084399494860FFF724FADA
:1011500006466068012810D108E0FFF71DFA801BE1
:1011600041F28831884201D9032043E79048406822
:1011700000F00C000428F0D11CE16068022810D1B6
:1011800008E0FFF709FA801B41F28831884201D953
:1011900003202FE78648406800F00C000828F0D1B3
:1011A00008E108E0FFF7F8F9801B41F28831884236
:1011B00001D903201EE77E48406800F00C0000289B
:1011C000F0D1F7E0207800F00200022807D178483B
:1011D000406820F0F000A168084375494860207815
:1011E00000F0010000286ED0606801282CD120207A
:1011F000010391FAA1F1B1FA81F108430121B1EBA8
:10120000601F02D16A4800680FE02020010391FAB4
:10121000A1F1B1FA81F108430221B1EB601F02D1C3
:101220006348006A01E06248406A20210A0392FA9A
:10123000A2F2B2FA82F2114301F01F0201219140A1
:10124000084088BB0120D5E6606802282DD1202007
:10125000010591FAA1F1B1FA81F108430121B1EB45
:10126000601F02D1524800680FE02020010591FA6A
:10127000A1F1B1FA81F108430221B1EB601F02D163
:101280004B48006A01E04A48406A20210A0592FA68
:10129000A2F2B2FA82F2114301F01F020121914041
:1012A000084008B90120A5E62DE02020022191FA8E
:1012B000A1F1B1FA81F108430121B1EB601F03D123
:1012C0003B48006810E061E02020022191FAA1F182
:1012D000B1FA81F108430221B1EB601F02D1344819
:1012E000006A01E03248406A2021022292FAA2F20A
:1012F000B2FA82F2114301F01F020121914008402D
:1013000008B9012076E62A48406820F003006168A9
:10131000084327494860FFF73FF9064660680128FF
:1013200010D108E0FFF738F9801B41F2883188427C
:1013300001D903205EE61E48406800F00C00042836
:10134000F0D123E06068022810D108E0FFF724F90B
:10135000801B41F28831884201D903204AE61448B3
:10136000406800F00C000828F0D10FE008E0FFF71B
:1013700013F9801B41F28831884201D9032039E6F4
:101380000B48406800F00C000028F0D107480068C6
:1013900020F007002843054908600846006800F06F
:1013A0000700A84206D0012024E6000000200240E9
:1013B00000100240207800F00400042807D10D48F6
:1013C000406820F4E060E16808430A4948602078FA
:1013D00000F00800082808D10648406820F4605052
:1013E000216940EAC100034948600020FFF7F6F890
:1013F0000020FFE50010024000B500F045F8094963
:10140000496801F0F001F02292FAA2F2B2FA82F2F7
:10141000D140054A515CC84004490860084600684C
:1014200000BD000000100240B84500086C0100201B
:1014300000B5FFF7E1FF0749496801F4E0614FF4A7
:10144000E06292FAA2F2B2FA82F2D140024A515C10
:10145000C84000BD00100240B845000800B5FFF7C5
:10146000CBFF0749496801F460514FF4605292FA8A
:10147000A2F2B2FA82F2D140024A515CC84000BDE9
:1014800000100240B8450008F0B585B00FF28C0C92
:101490009CE8E01001A8A0E8E01024A52D680095C4
:1014A00000210024002200230020214D696801F062
:1014B0000C056DB3042D02D0082D28D101E01D4884
:1014C00028E001F470154FF4701696FAA6F6B6FAF5
:1014D00086F6F54001AE735D01F4803595B1144D8B
:1014E0006D6805F400354FF4003696FAA6F6B6FAA4
:1014F00086F6F5401DF805400E4DB5FBF4F505FBED
:1015000003F202E00C4D03FB05F2104602E000BFBF
:10151000084800BF00BF05B0F0BD0000020304058D
:10152000060708090A0B0C0D0E0F1010010200002F
:101530000010024000127A0000093D0038B5044650
:101540000025207800F00100002877D0FC48406892
:1015500000F00C0004280CD0F948406800F00C00A2
:10156000082837D1F648406800F48030B0F5803F55
:1015700030D12020010391FAA1F1B1FA81F10843A1
:101580000121B1EB601F02D1ED4800680FE020207F
:10159000010391FAA1F1B1FA81F108430221B1EB03
:1015A000601F02D1E648006A01E0E548406A202158
:1015B0000A0392FAA2F2B2FA82F2114301F01F0278
:1015C0000121914008400028BFD06068002835D133
:1015D000012038BD00BFDA48006820F48030D849C7
:1015E00008600846006820F48020086000BFFEF70D
:1015F000D3FF054606E0FEF7CFFF401B642801D964
:101600000320E6E72020010391FAA1F1B1FA81F16C
:1016100008430121B1EB601F02D1C948006810E006
:101620002020010391FAA1F1B1FA81F108430221CE
:10163000B1EB601F03D1C248006A02E0B7E0C048C6
:10164000406A20210A0392FAA2F2B2FA82F211430E
:1016500001F01F020121914008400028CBD100BFBA
:101660006068B0F5803F06D1B548006840F480302E
:10167000B349086028E0606858B9B148006820F4B0
:101680008030AF4908600846006820F48020086078
:101690001AE06068B0F5A02F0BD1A948006840F4AB
:1016A0008020A74908600846006840F48030086040
:1016B0000AE0A348006820F48030A1490860084689
:1016C000006820F48020086000BF6068B8B3FEF7AF
:1016D00063FF054606E0FEF75FFF401B642801D963
:1016E000032076E72020010391FAA1F1B1FA81F1FC
:1016F00008430121B1EB601F02D1914800680FE05F
:101700002020010391FAA1F1B1FA81F108430221ED
:10171000B1EB601F02D18A48006A01E08848406A44
:1017200020210A0392FAA2F2B2FA82F2114301F0E6
:101730001F020121914008400028CCD037E0FFE78C
:10174000FEF72AFF054606E0FEF726FF401B642849
:1017500001D903203DE72020010391FAA1F1B1FA5C
:1017600081F108430121B1EB601F02D17448006888
:101770000FE02020010391FAA1F1B1FA81F10843B1
:101780000221B1EB601F02D16D48006A01E06C4894
:10179000406A20210A0392FAA2F2B2FA82F21143BD
:1017A00001F01F020121914008400028CCD120788F
:1017B00000F0020002284ED16148406800F00C00A1
:1017C00050B15F48406800F00C00082844D15C48E4
:1017D000406800F4803078BB2020022191FAA1F10A
:1017E000B1FA81F108430121B1EB601F02D15448E5
:1017F00000680FE02020022191FAA1F1B1FA81F1F5
:1018000008430221B1EB601F02D14D48006A01E09C
:101810004B48406A2021022292FAA2F2B2FA82F2E6
:10182000114301F01F0201219140084028B12069B5
:10183000012802D00120CCE60EE04148006820F0EB
:10184000F800F82292FAA2F2B2FA82F261699140AB
:1018500008433B49086095E0206970B3012090FA85
:10186000A0F1B1FA81F1374A42F82100FEF794FE67
:10187000054606E0FEF790FE401B022801D9032032
:10188000A7E62020022191FAA1F1B1FA81F10843E3
:101890000121B1EB601F02D12948006810E020202F
:1018A000022191FAA1F1B1FA81F108430221B1EBD1
:1018B000601F03D12248006A02E01EE02048406A0F
:1018C0002021022292FAA2F2B2FA82F2114301F02E
:1018D0001F020121914008400028CBD01848006821
:1018E00020F0F800F82292FAA2F2B2FA82F26169CC
:1018F000914008431249086044E00020012191FA18
:10190000A1F1B1FA81F10F4A42F82100FEF744FE3D
:10191000054606E0FEF740FE401B022801D90320E1
:1019200057E62020022191FAA1F1B1FA81F1084392
:101930000121B1EB601F07D10148006814E00000ED
:1019400000100240000042422020022191FAA1F141
:10195000B1FA81F108430221B1EB601F02D1FC48CA
:10196000006A01E0FA48406A2021022292FAA2F2BB
:10197000B2FA82F2114301F01F02012191400840A6
:101980000028C7D1207800F00800082846D1A069B7
:1019900080B3012090FAA0F1B1FA81F1ED4A02EB97
:1019A0008101C1F88004FEF7F7FD054606E0FEF769
:1019B000F3FD401B022801D903200AE66020022122
:1019C00091FAA1F1B1FA81F108430121B1EB601F55
:1019D00002D1DF48006810E06020022191FAA1F1F5
:1019E000B1FA81F108430221B1EB601F03D1D8485D
:1019F000006A02E013E0D648406A6021022292FAAF
:101A0000A2F2B2FA82F2114301F01F0201219140C9
:101A100008400028CBD00120FEF71EFC41E000204A
:101A2000012191FAA1F1B1FA81F1CA4A02EB8101D7
:101A3000C1F88004FEF7B0FD054606E0FEF7ACFDF8
:101A4000401B022801D90320C3E56020022191FA3E
:101A5000A1F1B1FA81F108430121B1EB601F02D17C
:101A6000BB4800680FE06020022191FAA1F1B1FAB1
:101A700081F108430221B1EB601F02D1B448006A32
:101A800001E0B348406A6021022292FAA2F2B2FA5F
:101A900082F2114301F01F02012191400840002809
:101AA000CCD1207800F00400042875D100BFA848EC
:101AB000C06940F08050A649C8610846C06900F07E
:101AC0008050009000BF00BFA348006840F48070C1
:101AD000A1490860FEF760FD054606E0FEF75CFDE3
:101AE000401B642801D9032073E59B48006800F47B
:101AF00080700028F2D000BF9548006A20F00100F5
:101B0000934908620846006A20F00400086200BF9A
:101B1000FEF742FD054608E0FEF73EFD401B41F2A0
:101B20008831884201D9032053E54020022191FAEF
:101B3000A1F1B1FA81F108430121B1EB601F02D19B
:101B4000834800680FE04020022191FAA1F1B1FA28
:101B500081F108430221B1EB601F02D17C48006A89
:101B600001E07B48406A4021022292FAA2F2B2FAD6
:101B700082F2114301F01F02012191400840002828
:101B8000CAD100BFE068012807D17148006A40F05F
:101B900001006F49086228E09EE0E06858B96C488F
:101BA000006A20F001006A4908620846006A20F0D5
:101BB0000400086219E0E06805280BD16448006A57
:101BC00040F00400624908620846006A40F00100E3
:101BD00008620AE05E48006A20F001005C49086281
:101BE0000846006A20F00400086200BFE068C8B33D
:101BF000FEF7D2FC054608E0FEF7CEFC401B41F2A2
:101C00008831884201D90320E3E44020022191FA7F
:101C1000A1F1B1FA81F108430121B1EB601F02D1BA
:101C20004B4800680FE04020022191FAA1F1B1FA7F
:101C300081F108430221B1EB601F02D14448006AE0
:101C400001E04348406A4021022292FAA2F2B2FA2D
:101C500082F2114301F01F02012191400840002847
:101C6000CAD039E0FFE7FEF797FC054608E0FEF72B
:101C700093FC401B41F28831884201D90320A8E43B
:101C80004020022191FAA1F1B1FA81F1084301212A
:101C9000B1EB601F02D12E4800680FE04020022106
:101CA00091FAA1F1B1FA81F108430221B1EB601F71
:101CB00002D12748006A01E02548406A40210222FB
:101CC00092FAA2F2B2FA82F2114301F01F0201214C
:101CD000914008400028CAD1E069002871D01C4812
:101CE000406800F00C0008286CD0E06902286AD136
:101CF0000021C00590FAA0F0B0FA80F0154A42F831
:101D00002010FEF749FC054606E0FEF745FC401BA7
:101D1000022801D903205CE42020010591FAA1F1F9
:101D2000B1FA81F108430121B1EB601F02D10848EB
:101D3000006815E02020010591FAA1F1B1FA81F1C6
:101D400008430221B1EB601F08D10148006A07E097
:101D50000010024000004242007000405748406AB4
:101D600020210A0592FAA2F2B2FA82F2114301F09E
:101D70001F020121914008400028C6D1206AB0F519
:101D8000803F07D14D48406820F40030A1680843E7
:101D90004A494860D4E9080108434849496821F4A0
:101DA00074110843454948600120010691FAA1F1E8
:101DB000B1FA81F1424A42F82100FEF7EDFB0546F7
:101DC00009E079E076E033E0FEF7E6FB401B02280D
:101DD00001D9032015E42020010591FAA1F1B1FAFF
:101DE00081F108430121B1EB601F02D13348006843
:101DF0000FE02020010591FAA1F1B1FA81F1084329
:101E00000221B1EB601F02D12C48006A01E02B488F
:101E1000406A20210A0592FAA2F2B2FA82F2114334
:101E200001F01F020121914008400028CCD043E07E
:101E300000214FF0807090FAA0F0B0FA80F0204AB4
:101E400042F82010FEF7A8FB054606E0FEF7A4FBCB
:101E5000401B022801D9032043E42020010591FA08
:101E6000A1F1B1FA81F108430121B1EB601F02D168
:101E7000124800680FE02020010591FAA1F1B1FAA3
:101E800081F108430221B1EB601F02D10B48006AC7
:101E900001E00A48406A20210A0592FAA2F2B2FA49
:101EA00082F2114301F01F020121914008400028F5
:101EB000CCD101E0012014E4002012E40010024023
:101EC00000004242042808D14FF0E021096941F0A6
:101ED00004014FF0E022116107E04FF0E0210969B1
:101EE00021F004014FF0E02211617047704770B596
:101EF00004462546681EB0F1807F01D301200FE023
:101F0000681E4FF0E02148610F214FF0FF3000F0D4
:101F1000C9F900204FF0E021886107200861002006
:101F200070BD10B5FFF7E2FF10BD7047F8B504466D
:101F3000002500262068006800F001052068C068C0
:101F400000F4807625B11EB1E06B40F00100E06343
:101F500020680068C0F340052068406900F0010671
:101F600025B11EB1E06B40F00400E063206800681A
:101F7000C0F3800525B11EB1E06B40F00200E063C4
:101F800020680068C0F3C00525B11EB1E06B40F0C9
:101F90000800E06320680068C0F340152068C0684E
:101FA00000F020061DB116B1204600F037FC206875
:101FB0000068C0F3C0152068C06800F080061DB13D
:101FC00016B1204600F01CFD20680068C0F38015A3
:101FD0002068C06800F040061DB116B1204600F030
:101FE00005FCE06B70B100BF2068006800902068BD
:101FF0004068009000BF00BF012084F839002046EF
:10200000FFF793FFF8BD000010B586B004461C49E9
:102010002068884231D100BF1A48806940F480406E
:10202000184988610846806900F48040019000BF2B
:1020300000BF48150290022003900320059002A9DA
:102040001148FEF717F94FF48060029000200390CA
:10205000049002A90C48FEF70DF900221146252034
:10206000FEF741FB2520FEF731FB08480068C068F9
:1020700040F0200005490968C86006B010BD0000A6
:1020800000380140001002400008014074010020A7
:1020900030B50346002493F83940012C01D0122CAE
:1020A00037D101B10AB9012030BD00BF93F8380023
:1020B000012801D10220F7E7012083F8380000BF92
:1020C00099629A85DA850020D86393F8390012283E
:1020D00003D1322083F8390002E0222083F839004E
:1020E00000BF002083F8380000BF1868C06840F4C3
:1020F00080701D68E8601868406940F001001D6844
:1021000068611868C06840F020001D68E860002021
:10211000CAE70220C8E7000070B505461B480478EE
:102120001B48007830B1012805D0022804D00328CC
:1021300004D102E002E001E000E000BF00BF14486B
:10214000007898B1124841781248445410484078B9
:10215000401C0F494870084640780E49891E49784E
:1021600088420CDB01200A49087008E00848007822
:10217000012804D106488470022005490870012214
:1021800002490548FFF784FF70BD0000570000209A
:10219000540000205A0A00207401002070470000FB
:1021A00000B585B000BF1F48806940F010001D4990
:1021B00088610846806900F01000009000BF00BFF1
:1021C00000BF0846806940F02000886108468069A9
:1021D00000F02000009000BF00BF00BF08468069EB
:1021E00040F0040088610846806900F00400009017
:1021F00000BF00BF4FF40050019001200290022068
:10220000049001A90848FEF735F84FF4807001905A
:10221000012002900220049001A90448FEF72AF848
:1022200005B000BD00100240001001400008014050
:1022300010B50948094908604FF41640486000216C
:1022400006488160C16001610C214161002181610A
:10225000C161FEF7D5F910BD0038014074010020BE
:1022600010B500220749084800F0B5FF07490648A5
:1022700001F0CFF90649044800F004FD024801F0DE
:1022800091FA10BD20000020B4010020640000205D
:102290001000002002480068C0F3022070470000D0
:1022A0000CED00E010B5002807DA0A07140E054A05
:1022B00000F00F031B1FD45403E00A07130E024A59
:1022C000135410BD18ED00E000E400E02DE9FC41DE
:1022D00005460024002700260020019000900CE213
:1022E000BDF8040000F00F06002E7DD1BDF80400FB
:1022F00000F0100088BB2868008848F60F7108407D
:102300002968088005F128042868B0F85010207862
:1023100001EBC000801C296801F5806131F81000D4
:10232000C0F30900E061E16960690844606100216F
:102330002846FEF74BFA95F824000028CFDDA06967
:102340000028CCD195F8240040F080002968A1F83D
:102350004C00002085F82400CFE1FFE705F502746A
:10236000286800880090BDF8000000F4006018B3F1
:102370002868B0F85010207801EBC000801D296853
:1023800001F5806131F81000C0F30900E061A18B14
:102390008BB2A28805F57B71286802F070F8286876
:1023A0000088C0F30E0048F68F7108402968088045
:1023B0002846FEF713FDA0E1BDF8000000F4004040
:1023C00000288CD028680088C0F30E0048F68F7172
:1023D0000840296808802868B0F85010207801EB80
:1023E000C000801D296800E055E001F5806131F8EA
:1023F0001000C0F30900E061E06960B1B4F81CC0EE
:102400001FFA8CF3A2886169286802F038F8E16944
:1024100060690844606100212846FEF7E5F92A68F2
:1024200002F580622868B0F85000801D02EB400180
:1024300022693E2A10D92269C2F34F10227C02F091
:102440001F020AB9421E90B24FF6FF7202EA8022C2
:1024500042F400420A600DE02269C2F34F00227C80
:1024600002F001020AB1421C90B24FF6FF7202EA7A
:1024700080220A60296809884BF68F7201EA0200FF
:1024800080F4805080F4005040F4004141F080011D
:102490002A68118031E17100286830F8110000903D
:1024A000BDF8000000F4004000287CD071002868CE
:1024B00030F81100C0F30E0048F68F71084072002A
:1024C000296821F8120005F5027000EB4614A07A85
:1024D000A8B92868B0F85010207801EBC000801D22
:1024E000296801F5806131F81000C0F30907EFB3E6
:1024F000A28861693B46286801F0C1FF44E0217869
:102500004900286830F8110000F48040A8B128681C
:10251000B0F85010207801EBC000801C296801F54C
:10252000806131F81000C0F30907DFB1E28861690A
:102530003B46286801F0A3FF14E02868B0F850106B
:10254000207801EBC000801D296801F5806131F819
:102550001000C0F309072FB1228961693B46286842
:1025600001F08DFF21784900286800E00CE030F888
:10257000110048F68F71084048F2C00108432278E4
:102580005200296821F81200E0693844E06160696E
:1025900038446061A06910B12069B84204D921783B
:1025A0002846FEF721F905E021782846D4E90523DD
:1025B000FEF7D0F9BDF8000000F0800000287CD0C4
:1025C00005F1280000EB46147100286830F811006E
:1025D00048F60F7108407200296821F81200A07AAD
:1025E000D0B92868B0F85010207801EBC000801CEA
:1025F000296801F5806131F81000C0F30900E0613D
:10260000E069E8B3B4F81CC01FFA8CF3A2886169D2
:10261000286801F052FF4EE021784900286830F820
:10262000110000F04000D0B12868B0F850102078B8
:1026300001EBC000801C296801F5806131F81000B1
:10264000C0F30900E061E06928B3B4F81CC01FFAC8
:102650008CF3E2886169286801F02FFF1BE028688D
:10266000B0F85010207801EBC000801D296801F5FA
:10267000806131F81000C0F30900E061E06900E01A
:1026800019E040B1B4F81CC01FFA8CF322896169CB
:10269000286801F012FF21784900286830F81100FD
:1026A00048F68F7108404CF28001084322785200AE
:1026B000296821F81200286800E01EE0B0F85010E8
:1026C000207801EBC000801C296801F5806131F899
:1026D0001000C0F30900E061E169606908446061CD
:1026E000A06920B921782846FEF770F805E0217826
:1026F0002846D4E90523FEF79BF92868B0F8440082
:10270000019000F4004000287FF4EAADBDE8FC81B0
:1027100010B5FDF747FFFFF704FC10BD10B594B0EE
:1027200001200A9000040B9000200C9002201190D0
:10273000C10312914FF4E01113910AA8FEF7FEFEB7
:102740000520059002200690002007904FF480603D
:10275000089000200990022105A8FEF733FC102004
:1027600001900020049001A8FEF772FBFEF744FEE2
:102770004FF47A71B0FBF1F42046FFF7B8FB042068
:10278000FFF7A0FB00221146501EFDF7ACFF14B06E
:1027900010BD00001148006840F001000F490860BA
:1027A000084640680E4908400C49486008460068E1
:1027B0000C490840094908600846006820F4802058
:1027C00008600846406820F4FE0048604FF41F008F
:1027D0008860C80304490860704700000010024088
:1027E0000000FFF8FFFFF6FE08ED00E010B504461C
:1027F0002068C06820F040002168C86094F8390063
:10280000322803D1222084F8390002E0012084F824
:1028100039002046FFF7C2FC002010BD70B5044609
:10282000002694F83960222E01D0322E52D1A068B1
:10283000B0F5805F13D1A56A206940B9206840686F
:10284000C0F308002880A06A801CA06219E02068FC
:102850004068C0B22880A06A401CA06211E02069D4
:1028600038B920684068C1B2A26A501CA0621170D9
:1028700007E02068406800F07F01A26A501CA06257
:102880001170E08D401E80B2E08508BB2068C068F2
:1028900020F020002168C86094F83900322803D164
:1028A000122084F839000EE02068C06820F480709F
:1028B0002168C8602068406920F0010021684861F3
:1028C000012084F839002046FFF726FC002070BD67
:1028D0000020FCE70220FAE72DE9F041044600253C
:1028E0002068006920F44050E168084321680861CD
:1028F0002169A0680843616940EA01052068C06851
:1029000041F20C61884328432168C860206840690F
:1029100020F44070A1690843216848613749206864
:10292000884234D1FEF79AFD00EBC00101EB0010A4
:1029300061688900B0FBF1F06421B0FBF1F6FEF7AD
:102940008DFD00EBC00101EB001061688900B0FB58
:10295000F1F7FEF783FD00EBC00101EB00106168A9
:102960008900B0FBF1F06421B0FBF1F000EBC00195
:1029700001EB0010A7EB8000322101EB0010642175
:10298000B0FBF1F066F31F102168886033E0FEF7BA
:102990004FFD00EBC00101EB001061688900B0FB46
:1029A000F1F06421B0FBF1F6FEF742FD00EBC0014F
:1029B00001EB001061688900B0FBF1F7FEF738FD0C
:1029C00000EBC00101EB001061688900B0FBF1F081
:1029D0006421B0FBF1F000EBC00101EB0010A7EBAC
:1029E0008000322101EB00106421B0FBF1F066F3AE
:1029F0001F1021688860BDE8F081000000380140A8
:102A000010B50146002391F83930122B01D0322B3A
:102A10002CD18868B0F5805F0FD10A6A1088C0F3A6
:102A200008000C686060086918B9086A801C0862B0
:102A300009E0086A401C086205E00C6A601C086234
:102A400020780C686060C88C401E80B2C88458B979
:102A50000868C06820F080000C68E0600868C06802
:102A600040F040000C68E060002010BD0220FCE750
:102A700010B5002005490870487088700449087036
:102A8000487088700A20FDF7E7FB10BD5400002055
:102A9000580A002010B50248FFF748FA10BD0000A0
:102AA0007401002002460B46D2F81812D2F8180220
:102AB00018B10020C1F8140270470220FCE770B57D
:102AC00004460E46D4F818523146204600F060FC09
:102AD000C5F80C02D4F8180248B1D5F80402D4F8AD
:102AE0001C12CA6805F503719047002070BD0220D2
:102AF000FCE770B504460E4600258121204600F013
:102B00008DFB0121204600F089FB8221204600F048
:102B100085FBD4F8180250B1D4F81C1248688047DD
:102B2000D4F8180200F04EFF0020C4F8180228461E
:102B300070BD70B50546D5F81842D5F81C0278B1BD
:102B400094F80002FF280BD094F8012294F80002B8
:102B5000D5F81C128B6821469847FF2084F80002A4
:102B6000002070BD01460A2008800148704700001F
:102B700058000020014643200880014870470000AB
:102B8000E000002001464320088001487047000013
:102B90009C00002001464320088001487047000047
:102BA000240100202DE9F04104460F460026207C38
:102BB00070B94FF4007302228121204600F04AFCD4
:102BC0004FF4007302220121204600F043FC0BE089
:102BD000402302228121204600F03CFC40230222B7
:102BE0000121204600F036FC0823032282212046E2
:102BF00000F030FC4FF4077000F0EAFEC4F8180251
:102C0000D4F8180208B901261CE0D4F81852D4F8F8
:102C10001C12086880470020C5F81402C5F8180285
:102C2000207C40B94FF4007301212046D5F80422DE
:102C300000F020FC06E0402301212046D5F80422C4
:102C400000F018FC3046BDE8F08170B50446D4F8B9
:102C50001852D4F8180298B1207C40B94FF4007390
:102C600001212046D5F8042200F004FC06E04023B0
:102C700001212046D5F8042200F0FCFB002070BDA5
:102C80000220FCE70246022011B1C2F81C1200200B
:102C900070470246D2F81832C3F804120020704779
:102CA00010B50346D3F81842C4F80812C4F810222D
:102CB000002010BD70B505460C46D5F81862207886
:102CC00000F0600040B3202835D1E088E0B12078E2
:102CD00000F0800060B1E2886078D5F81C128B6843
:102CE00031469847E2883146284600F09DF812E0C8
:102CF000607886F80002A07986F80102E288314601
:102D0000284600F070F806E06078D5F81C12002222
:102D10008B68214698470FE060780A2802D00B287C
:102D200007D105E001220649284600F07DF800E0C1
:102D300000BF00BF00BF00BF00BF002070BD00008B
:102D40006701002070B504460D46D4F814022946E8
:102D5000426820469047002070BD70B504460D467D
:102D600094F8FC01022802D0032811D100E000BF32
:102D7000688801280BD10020C4F80402D4F814029A
:102D80002946826820469047204600F05EF804E01D
:102D90002946204600F01BF800BF00BF70BD70B58B
:102DA00006460C4615462B4622460021304600F0CA
:102DB00061FB002070BD70B506460C4615462B46DB
:102DC00022460021304600F000FC002070BD70B5A6
:102DD00004460D468021204600F0DBFB0021204602
:102DE00000F0D7FB70BD70B504460E4615460320B3
:102DF000C4F8F4014FF484700551001D05512B46B1
:102E000032460021204600F035FB002070BD10B591
:102E100004460520C4F8F40100231A46194620464A
:102E200000F028FB002010BD70B504460E46154684
:102E30000220C4F8F401A561E5612B463246002169
:102E4000204600F0C2FB002070BD10B504460420EF
:102E5000C4F8F40100231A461946204600F0B5FBD9
:102E6000002010BD70B505460C462DB92246064916
:102E700006A000F087F904E02246034903A000F011
:102E800081F9014870BD0000D8030020434443206D
:102E9000436F6E6669670000024612200880014891
:102EA000704700003C00002070B505460C462DB967
:102EB0002246064906A000F065F904E022460349CF
:102EC00003A000F05FF9014870BD0000D8030020A6
:102ED00043444320496E7465726661636500000077
:102EE000024604200880014870470000500000207E
:102EF00070B505460C462246024903A000F042F98F
:102F0000004870BDD803002053544D6963726F654B
:102F10006C656374726F6E696373000070B505460B
:102F20000C462DB92246064906A000F02BF904E014
:102F30002246034903A000F025F9014870BD0000B6
:102F4000D803002053544D33322056697274756192
:102F50006C20436F6D506F727400000070B50546B1
:102F60000C462DB92246064906A000F00BF904E0F4
:102F70002246034903A000F005F9014870BD000096
:102F8000D8030020303030303030303030303141F4
:102F90000000000070B504460D46E888012804D002
:102FA00029462046FFF713FF1BE094F8FC01022896
:102FB00002D003280FD108E00020A060012204F114
:102FC00008012046FFF730FF0AE00122211D2046BC
:102FD000FFF72AFF04E029462046FFF7F8FE00BF6E
:102FE00000BF70BDF8B504460E4670880012082870
:102FF0007FD2DFE800F07E040C207E7E5F6D207CB7
:10300000D4F810120A6869469047054676E0207C9D
:1030100040B9D4F81402816A6846884705460221FF
:10302000697007E0D4F81402C16A6846884705460B
:103030000221697062E0B078062834D2DFE800F03F
:10304000030B131B232B207CD4F810124A6869460B
:10305000904705462CE0207CD4F810128A68694617
:103060009047054624E0207CD4F81012CA686946CF
:10307000904705461CE0207CD4F810120A69694686
:103080009047054614E0207CD4F810124A6969463E
:10309000904705460CE0207CD4F810128A696946F6
:1030A0009047054604E031462046FFF790FEF8BD04
:1030B00000BF23E0207C30B9D4F81402416B68468D
:1030C000884705461AE031462046FFF780FEEEE7C6
:1030D000207C48B9D4F81402016B6846884705463D
:1030E000072169700AE004E031462046FFF76FFED1
:1030F000DDE731462046FFF76AFED8E700BFBDF89E
:10310000000088B1F08878B1F088BDF800108842DE
:1031100002DDBDF8000000E0F0880090BDF800205E
:1031200029462046FFF780FE00BFC0E70146002089
:1031300002E0421CD0B2491C0A78002AF9D170473B
:1031400070B504460D4694F8FC01022802D003280D
:1031500011D100E000BF0120E060D4F8040218B1F2
:10316000E06840F00200E060022204F10C01204619
:10317000FFF75AFE04E029462046FFF728FE00BF6D
:1031800000BF70BD2DE9F04104460D4617460026EC
:10319000FCB12046FFF7CAFF022101EB4000388056
:1031A0003A783046711CCEB22A5403223046711C44
:1031B000CEB22A540AE014F8012B3046711CCEB26C
:1031C0002A5400223046711CCEB22A54207800289E
:1031D000F1D1BDE8F08170B504460D4616460CB934
:1031E000022070BDD4F8140210B10020C4F81402FB
:1031F0000DB1C4F81052012084F8FC01267020465D
:1032000000F0D0F80020ECE770B504460D462946E2
:10321000D4F82002FDF728FB002070BD70B50446ED
:103220000D462946D4F82002FDF7ECFA002070BDC7
:103230002DE9F04104460E461746002E54D104F104
:103240001405D4F8F401022843D1D5E902018842DB
:1032500010D9D5E90201401AA860288982B23946FE
:103260002046FFF7A8FD00231A461946204600F025
:1032700001F92EE0E9686868B0FBF1F201FB120089
:10328000B8B9E9686868884213D36868D4F8F81157
:1032900088420ED2002211462046FFF78CFD002006
:1032A000C4F8F80100231A461946204600F0E2F857
:1032B0000FE0D4F81402C06840B194F8FC01032870
:1032C00004D1D4F81402C168204688472046FFF78D
:1032D0009EFD94F80002012814D1204600F0A1F9C7
:1032E000002084F800020DE0D4F81402406948B1CF
:1032F00094F8FC01032805D1D4F814023146426940
:10330000204690470020BDE8F0812DE9F0410546B8
:103310000E4617465EBB05F58274D5F8F401032806
:1033200033D1D4E90201884210D9D4E90201401A0C
:10333000A060D4E90201884201D2A06800E0E06800
:1033400082B239462846FFF72AFD1EE0D5F814025E
:10335000006940B195F8FC01032804D1D5F81402A6
:103360000169284688472846FFF76FFD0DE0D5F82C
:103370001402806948B195F8FC01032805D1D5F8FD
:10338000140231468269284690470020BDE8F0814A
:1033900070B504460D462946D4F82002FDF795FA8B
:1033A00070BD000010B504461C48C0F81C4404F56C
:1033B000087420601A4819490860082048600221F2
:1033C000164881600321C16000218161C1610162F1
:1033D000FDF716FC1823002211462068FDF7D6F9E8
:1033E0005823002280212068FDF7D0F9C023002255
:1033F00081212068FDF7CAF94FF48873002201216A
:103400002068FDF7C3F92068A4F508744FF48073B1
:1034100000228221FDF7BAF9002010BD1804002017
:10342000005C004010B50246D2F8203201F0800066
:10343000802807D101F07F0403F1280000EB44103D
:10344000807810BD01F07F0403F5027000EB44109A
:103450008078F6E72DE9F04104460F4615461E46F2
:103460002B4632463946D4F82002FDF738FA0020C0
:10347000BDE8F0812DE9F04104460D4616461F4691
:103480003B4632462946D4F82002FDF763FA002075
:10349000BDE8F08110B504464023002211462046C5
:1034A000FFF7D8FF40214FF48870015140230022DC
:1034B00080212046FFF7CEFF40212162012084F8C1
:1034C000FC01D4F8180228B12179D4F8140242681A
:1034D00020469047002010BD014691F8FD0181F87B
:1034E000FC010020704710B5044694F8FC01032845
:1034F00008D1D4F81402C06920B1D4F81402C1690B
:1035000020468847002010BD0246117400207047F5
:1035100070B504460D462946D4F82002FDF743FC59
:10352000002070BD70B504460D46294604F50270B2
:1035300000F05BF80120C4F8F40140F20E20005BBB
:10354000C4F8F80194F8080200F01F0020B1012827
:1035500008D0022812D10BE004F50271204600F0D9
:1035600028F913E004F50271204600F006FA0DE098
:1035700004F50271204600F055F907E094F80802BE
:1035800000F08001204600F004F800BF00BF0020DA
:1035900070BD70B504460D462946D4F82002FDF7EB
:1035A0000EFA002070BD10B50446D4F82002FDF7D5
:1035B0001EFC002010BD014691F8FC0181F8FD01C0
:1035C000042081F8FC01002070472DE9F0410446F9
:1035D0000D4616461F463B4632462946D4F8200281
:1035E000FDF726FA0020BDE8F0810A7802704A78DB
:1035F00042708B78CA7803EB022242800B794A79B9
:1036000003EB022282808B79CA7903EB0222C2800B
:1036100070470246002011B1C2F8141200E00220E7
:10362000704701460020704770B504460D46A888D3
:10363000F8B9E888E8B9A87800F07F0694F8FC01AA
:10364000032804D129462046FFF7C1FB15E084F882
:10365000FE6131462046FFF75BFF2046FFF7F5FB92
:103660001EB1022084F8FC0107E0012084F8FC016F
:1036700003E029462046FFF7AAFB70BD70B504465B
:103680000D460226D4F8140238B1D4F814022946A3
:1036900002682046904700B90026304670BD000001
:1036A00070B504460D46A87834490870084600787D
:1036B000012804DD29462046FFF789FB5BE094F8EA
:1036C000FC01022802D003284FD11CE02B480078CF
:1036D000A8B12A4800786060032084F8FC012748DC
:1036E00001782046FFF7CAFF022804D12946204668
:1036F000FFF76DFB70BD2046FFF7A7FB02E02046F9
:10370000FFF7A3FB36E01D48007870B9022084F86B
:10371000FC011A4800786060184801782046FFF7DD
:1037200011FB2046FFF791FB1EE014490978606801
:10373000884216D021792046FFF704FB0F48007815
:1037400060600E4801782046FFF798FF022804D1F8
:1037500029462046FFF73BFBCCE72046FFF775FBE9
:1037600002E02046FFF771FB04E029462046FFF700
:103770002EFB00BF00BF00BFBCE7000068010020B7
:1037800070B504460D46688801280AD1C4F80402C1
:10379000D4F8140229468268204690472046FFF755
:1037A00054FB70BD10B504462046FFF7FCFE002018
:1037B00010BD70B505460C46002660780A2829D24F
:1037C000DFE800F01923281E280A0528140F2146D7
:1037D0002846FFF707FC22E021462846FFF724FF92
:1037E0001DE021462846FFF75BFF18E021462846EA
:1037F000FFF7D0FB13E021462846FFF7A1FC0EE0BF
:1038000021462846FFF7BCFF09E021462846FFF77E
:10381000A4FA04E021462846FFF7D9FA00BF00BF0A
:10382000304670BD2DE9F04105460E464FF00008C8
:103830003479307800F06000202808D1D5F81402DF
:1038400031468268284690470020BDE8F0817078B4
:10385000002855D001282AD003287AD195F8FC01F8
:10386000022802D003281BD107E02CB1802C03D002
:1038700021462846FFF78DFE17E0708830B92CB13D
:10388000802C03D021462846FFF783FED5F814028A
:1038900031468268284690472846FFF7D6FA04E06A
:1038A00031462846FFF793FA00BF00BF62E095F863
:1038B000FC01022802D003281BD107E02CB1802C88
:1038C00003D021462846FFF764FE17E0708878B9D8
:1038D00004F07F0048B121462846FFF795FCD5F853
:1038E000140231468268284690472846FFF7ADFA11
:1038F00004E031462846FFF76AFA00BF00BF39E00E
:1039000095F8FC01022802D003282BD107E004F02F
:103910007F0018B121462846FFF73BFE27E004F060
:103920008000802806D104F07F0105F1140000EB2F
:10393000011005E004F07F0105F5827000EB011035
:10394000074621462846FFF76DFD18B10120386073
:1039500002E00EE000203860022239462846FFF7D8
:1039600063FA04E031462846FFF731FA00BF00BF92
:1039700000E000BF00BF404667E770B504460D4653
:10398000002694F8FC01032814D1287901280CDCC6
:10399000D4F814022946826820469047E88840B946
:1039A0003EB92046FFF751FA03E029462046FFF7CB
:1039B0000EFA04E029462046FFF709FA00BF00BFCF
:1039C000002070BD10B50446204600F0A7FD10BDD4
:1039D00001460148704700003808002010B5024633
:1039E000C87830B101282CD0022810D0032836D155
:1039F00019E00878400032F8100048F68F1318409C
:103A000040F400700B785B0022F8130028E008787F
:103A1000400032F8100048F68F1318400B785B0016
:103A200022F813001CE00878400032F8100048F635
:103A30008F13184040F4C0600B785B0022F813002D
:103A40000EE00878400032F8100048F68F13184056
:103A500040F480600B785B0022F8130000E000BFA8
:103A600000BF0878400032F8100048F68F73184005
:103A700048F2800318430B7818435B0022F81300C8
:103A8000887A00287DD1487898B38888401044000F
:103A9000B2F85030087803EBC00002F5806343F8B9
:103AA00010400878400032F8100000F0400068B183
:103AB0000878400032F8100048F68F73184048F23A
:103AC000C00318430B785B0022F813000B785B00EF
:103AD00032F8133048F6BF7403EA040080F0200087
:103AE00040F4004343F080030C78640022F8143063
:103AF00047E1FFE7888840104400B2F8503008786A
:103B000003EBC000001D02F5806343F81040B2F8DB
:103B10005040087804EBC000801D1C4604EB4003B5
:103B20000C693E2C10D90C69C4F34F100C7C04F0C6
:103B30001F040CB9441EA0B24FF6FF7404EA80249F
:103B400044F400441C600DE00C69C4F34F000C7C8D
:103B500004F001040CB1441CA0B24FF6FF7404EA57
:103B600080241C600878400032F8100000F4804087
:103B700078B10878400032F8100048F68F7318408A
:103B800000E01BE04CF2800318430B785B0022F846
:103B900013000B785B0032F813304BF68F7403EA96
:103BA000040080F4805080F4005040F4004343F05F
:103BB00080030C78640022F81430E2E008784000BA
:103BC00032F8100040F4807048F68F73184048F2C5
:103BD000800318430B785B0022F81300C88840105C
:103BE0004400B2F85030087803EBC00002F580635F
:103BF00043F81040088940104400B2F8503008786B
:103C000003EBC000001D02F5806343F810404878C4
:103C1000F0BB0878400032F8100000F4804068B132
:103C20000878400032F8100048F68F7318404CF2C4
:103C3000800318430B785B0022F8130008784000DB
:103C400032F8100000F0400068B10878400032F807
:103C5000100048F68F73184048F2C00318430B78E1
:103C60005B0022F813000878400032F8100048F694
:103C70008F73184048F2C00318430B785B0022F89A
:103C800013000B785B0032F813304BF68F7400E0B2
:103C90001EE003EA040080F4805080F4005040F4F9
:103CA000004343F080030C78640022F814300B7852
:103CB0005B0032F8133048F6BF7403EA040040F4A6
:103CC000004343F080030C78640022F8143058E07D
:103CD0000878400032F8100000F4804068B108789D
:103CE000400032F8100048F68F7318404CF2800301
:103CF00018430B785B0022F813000878400032F874
:103D0000100000F0400068B10878400032F8100060
:103D100048F68F73184048F2C00318430B785B00D5
:103D200022F813000878400032F8100048F68F732C
:103D300018404CF2800318430B785B0022F8130004
:103D40000B785B0032F8133048F6BF7403EA0400C6
:103D500040F4004343F080030C78640022F81430F0
:103D60000B785B0032F813304BF68F7403EA0400D3
:103D700040F4004343F080030C78640022F81430D0
:103D800000BF002010BD10B50446002010BD10B5C6
:103D90000246887A00284DD1487828B30878400038
:103DA00032F8100000F0400068B10878400032F8A6
:103DB000100048F68F73184048F2C00318430B7880
:103DC0005B0022F813000B785B0032F8133048F6E2
:103DD000BF7403EA040040F4004343F080030C780E
:103DE000640022F81430DAE00878400032F810005D
:103DF00000F4804068B10878400032F8100048F6BE
:103E00008F7318404CF2800318430B785B0022F844
:103E100013000B785B0032F813304BF68F7403EA13
:103E2000040040F4004343F080030C78640022F85F
:103E30001430B4E04878002858D10878400032F8AF
:103E4000100000F4804068B10878400032F810009B
:103E500048F68F7318404CF2800318430B785B00D0
:103E600022F813000878400032F8100000F04000FB
:103E700068B10878400032F8100048F68F73184097
:103E800048F2C00318430B785B0022F8130008784F
:103E9000400032F8100048F68F73184048F2C00313
:103EA00018430B785B0022F813000B785B0032F8A4
:103EB00013304BF68F7403EA040040F4004343F0E0
:103EC00080030C78640022F814300B785B0032F821
:103ED000133048F6BF7403EA040040F4004343F093
:103EE00080030C78640022F8143058E00878400011
:103EF00032F8100000F4804068B10878400032F8D1
:103F0000100048F68F7318404CF2800318430B786A
:103F10005B0022F813000878400032F8100000F02F
:103F2000400068B10878400032F8100048F68F73FE
:103F3000184048F2C00318430B785B0022F81300C6
:103F40000878400032F8100048F68F7318404CF2A1
:103F5000800318430B785B0022F813000B785B009A
:103F600032F8133048F6BF7403EA040040F400430B
:103F700043F080030C78640022F814300B785B0067
:103F800032F813304BF68F7403EA040040F4004318
:103F900043F080030C78640022F8143000BF002046
:103FA00010BD01460020704701460020704710B543
:103FB0000446012024F8400F00202080A0802082A9
:103FC000403C10BD014600224FF43D42B1F8400094
:103FD0009043A1F84000002070470246002070473F
:103FE00010B50246487848B30878400032F810000F
:103FF00000F0400068B10878400032F8100048F640
:104000008F73184048F2C00318430B785B0022F806
:1040100013000B785B0032F8133048F6BF7403EAE4
:10402000040080F0100080F0200040F4004343F0D2
:1040300080030C78640022F8143029E008784000EE
:1040400032F8100000F4804068B10878400032F87F
:10405000100048F68F7318404CF2800318430B7819
:104060005B0022F813000B785B0032F813304BF63C
:104070008F7403EA040080F4805080F4005040F410
:10408000004343F080030C78640022F8143000BF32
:10409000002010BD10B502460878A0B90B785B006F
:1040A00032F813304BF6BF7403EA040080F48050FA
:1040B00080F0100040F4004343F080030C7864006B
:1040C00022F8143027E0487890B10B785B0032F882
:1040D000133048F6BF7403EA040080F0100040F487
:1040E000004343F080030C78640022F8143012E09F
:1040F0000B785B0032F813304BF68F7403EA040040
:1041000080F4805040F4004343F080030C78640056
:1041100022F8143000BF002010BDF0B506460C4652
:104120000027A569607801287CD12169A0698842AF
:1041300004D92569A069401BA06102E0A56900209F
:10414000A061A07A80B9ABB2A2883046616900F064
:10415000B4F9B6F85010207801EBC000801C06F5C9
:10416000806141F81050A1E02078400036F810003E
:1041700000F04000C0B3607838BBB6F8502020781B
:1041800002EBC000801D06F5806202EB40013E2D6F
:104190000ED9C5F34F1005F01F020AB9421E90B2A6
:1041A0004FF6FF7202EA802242F400420A600BE0FE
:1041B000C5F34F0005F001020AB1421C90B24FF660
:1041C000FF7202EA80220A600CE06078012809D1BF
:1041D000B6F85010207801EBC000801C06F5806115
:1041E00041F81050278939E0FFE7607840BBB6F806
:1041F0005020207802EBC000801C06F5806202EBA4
:1042000040013E2D0FD9C5F34F1005F01F020AB92A
:10421000421E90B24FF6FF7202EA802242F4004240
:104220000A600CE057E0C5F34F0005F001020AB147
:10423000421C90B24FF6FF7202EA80220A600CE044
:104240006078012809D1B6F85010207801EBC00041
:10425000801C06F5806141F81050E788ABB23A4601
:104260003046616900F029F9607870B92078400023
:1042700036F8100048F68F71084048F2C001084334
:104280002178490026F8110010E0607801280DD14E
:104290002078400036F8100048F68F7108404CF244
:1042A000800108432178490026F81100217849004F
:1042B00036F8111048F6BF7201EA020080F01000D3
:1042C00080F0200040F4004141F08001227852004B
:1042D00026F81210B8E02169A069884204D925693E
:1042E000A069401BA06102E0A5690020A061A07A3E
:1042F00038BBB6F85020207802EBC000801D06F5D0
:10430000806202EB40013E2D0ED9C5F34F1005F03F
:104310001F020AB9421E90B24FF6FF7202EA8022D3
:1043200042F400420A600BE0C5F34F0005F00102C1
:104330000AB1421C90B24FF6FF7202EA80220A6074
:104340006DE0607838BBB6F85020207802EBC000F2
:10435000801C06F5806202EB40013E2D0ED9C5F3AC
:104360004F1005F01F020AB9421E90B24FF6FF72BD
:1043700002EA802242F400420A600BE0C5F34F00DB
:1043800005F001020AB1421C90B24FF6FF7202EA38
:1043900080220A600CE06078012809D1B6F850103C
:1043A000207801EBC000801C06F5806141F81050B8
:1043B000607838BBB6F85020207802EBC000801D32
:1043C00006F5806202EB40013E2D0ED9C5F34F1079
:1043D00005F01F020AB9421E90B24FF6FF7202EAC0
:1043E000802242F400420A600BE0C5F34F0005F062
:1043F00001020AB1421C90B24FF6FF7202EA80221B
:104400000A600CE06078012809D1B6F850102078D5
:1044100001EBC000801C06F5806141F81050217846
:10442000490036F811104BF68F7201EA020080F451
:10443000805080F4005040F4004141F08001227827
:10444000520026F8121000BF0020F0BD01460022E5
:104450004FF43D42B1F840001043A1F84000002065
:104460007047000010B50248FCF718FB10BD0000B3
:104470001804002001460020B1F844007047F0B550
:104480005F1C7E100024002500EB420707F58065C5
:10449000344605E035F804CB21F801CB491C641EF5
:1044A000002CF7D1F0BD024600207047024611B93A
:1044B0008020A2F84C00002070472DE9F04104460E
:1044C00003F101084FEA68070025AC4600260020EA
:1044D00004EB420808F580603D460BE091F800C00F
:1044E000491C91F800804CEA082620F8026B801CD9
:1044F000491C6D1E002DF1D1BDE8F08102E008C815
:10450000121F08C1002AFAD170477047002001E04D
:1045100001C1121F002AFBD17047000010B500280E
:1045200021D0114B0022001F196803E0814203D8FB
:104530000A4649680029F9D152B11368841A9C428D
:1045400004D1006818441060104602E0506000E09A
:10455000186039B102680B1A934203D10B681A44F0
:1045600002604968416010BD70010020FCF722F82C
:10457000FEF7D4F8FDF714FEFDF75AFEFDF770FEC6
:10458000FEF776FA4FF47A70FBF766FE01220749D0
:104590000748FDF77DFD08E04FF4FA70FBF75CFE7D
:1045A0004FF400510348FBF7F3FFF5E757000020F5
:1045B000740100200010014000000000010203040B
:1045C0000102030406070809E8450008000000206E
:1045D000740100006C010008A84600087401002066
:1045E000F40C00000C4500080110130D021B080715
:1045F0000413C3011B08410813992E1B08E1041A78
:10460000F104131D2F1B085D041A650C1AA904136D
:1046100012013202164083044057260201020301B0
:1046200045040309044B0A061C19131113A52B1486
:1046300008F32A1408B52C42081A33101AA5101AC8
:10464000BF04C11A85181A75041A95041A65041C4A
:1046500009024357112BC032531B01020B130524CF
:104660001610010524011009010424020205240684
:10467000170107058203081C1009048D320A1D0763
:104680000501027B2C07058107110937442A4007E1
:104690002A8107112B0907440A2204440A16FF4401
:0846A000511BA24A4121000058
:04000005080000ED02
:00000001FF
